:020000000D28C9
:100008007E14803120007F08F0007008FF007E1009
:1000180009000E287E1020000D2B20002008F90072
:100028002108FA002208FB0003107A0D7B0DFC0062
:100038007C08A8002308F9002408FA002508FB001A
:1000480003107A0D7B0DFC007C08A7002808031913
:10005800392827082802031840282803FF3A2707C9
:10006800F90019307902031C40282308A00024084D
:10007800A1002508A200080027080319080028087D
:10008800270203184F282703FF3A2807F9001930D9
:100098007902031808000630F9007908A600A21BA7
:1000A800A617A51B2617A117FF30A005FF30A1052D
:1000B8000030A205A417FF30A305FF30A4050030C7
:1000C800A5052708280203188B280130A335A40D9D
:1000D800A50D890B6A280130A702270828060319ED
:1000E80086280130A60226080739031986286928B8
:1000F8000130A236A10CA00C890B7D280130F90033
:100108007908A807280827060319B0287C28280892
:1001180027020318B0280130A035A10DA20D890BC4
:1001280090280130A802270828060319AC280130B6
:10013800A602260807390319AC288F280130A536EE
:10014800A40CA30C890BA3280130F9007908A70790
:1001580028082706031DA228A61FC228FF30A006CC
:10016800FF30A106FF30A2060130A00700300318B7
:100178000130A107003003180130A207261FD42838
:10018800FF30A306FF30A406FF30A5060130A30701
:10019800003003180130A407003003180130A50708
:1001A800A6012008A3072108A43D2208A53DA51FF4
:1001B800EF28FF30A306FF30A406FF30A506013064
:1001C800A307003003180130A407003003180130DA
:1001D800A507A601A60A2308F1002408F2002508AD
:1001E800F3002808F9007908F4002608FA007A08CC
:1001F800F500402271082000A0007208A1007308D1
:10020800A200080020002208A8002308A90024084A
:10021800AA000310290D2A0DAB002B08AC002C08EE
:10022800031D1D290030A2000030A3000030A400E7
:1002380008002508A8002608A9002708AA00031016
:10024800290D2A0DAB002B08B1003108031D3329F5
:100258000030A2000030A3000030A40008003108DC
:100268007B3EA8002808AC072208A8002308A9009C
:100278002408AA001030AA36A90CA80C890B3F291B
:100288002808AB002B08B1002508A8002608A900FB
:100298002708AA001030AA36A90CA80C890B4F29E8
:1002A8002808AB002B08B1068030A8002808B10543
:1002B800A317A617FF30A505FF30A6050030A70530
:1002C8000030AD000030AE000030AF000730A800AD
:1002D8002808B000221C76292508AD072608AE3D5F
:1002E8002708AF3D0130A436A30CA20C890B77294F
:1002F8000130A535A60DA70D890B7D290130B00267
:10030800031D6E290930A8002808B000221C922974
:100318002508AD072608AE3D2708AF3D0130A436B5
:10032800A30CA20C890B93290130AF36AE0CAD0C8F
:10033800890B99290130B002031D8A292D08F10083
:100348002E08F2002F08F3002C08A8002808F40053
:100358003108A9002908F500402271082000A200F0
:100368007208A3007308A40008007108F500720859
:10037800F6007308F7000310760D770DF80078087B
:100388002000A5002508031DD2290030F400003004
:10039800F3000030F2000030F10008007108F500A9
:1003A8007208F6007308F7001730F736F60CF50CEC
:1003B800890BD9297508F8007808A000F217FF30D2
:1003C800F105FF30F2050030F3057108A10072084D
:1003D800A2007308A300A4018E30A502A51F102A4D
:1003E8002508803A8F3E0318022A0030F4000030B6
:1003F800F3000030F2000030F10008000130A436AC
:10040800A30CA20CA10C890B032A0130F500750876
:10041800A5070319292A022A18302502031C262AAF
:100428000030F4000030F3000030F2000030F1003A
:1004380008000130A135A20DA30DA40D890B1E2AB9
:100448000130A5022508031D1D2A20080319372A93
:10045800A109A209A309A409A10A0319A20A031957
:10046800A30A0319A40A2408F4002308F3002208A5
:10047800F2002108F100080074080319482A7308DB
:1004880072047104031D592A0030F1000030F20093
:100498000030F30008000130F6007608F407013058
:1004A800F336F20CF10C890B542AFE30730503194C
:1004B800722A4F2A0130F6007608F4070130F10756
:1004C800003003180130F207003003180130F30739
:1004D8000130F336F20CF10C890B6D2AFF307305ED
:1004E80003197F2A5E2A0130F4020130F135F20D3A
:1004F800F30D890B7A2AF21B852A0230740203183D
:10050800772A74188D2AFF30F1057F30F205FF3005
:10051800F3050310F40C7408F600F701F801103025
:10052800F635F70DF80D890B942A7608F10477084B
:10053800F2047808F304750803190800F317080093
:1005480000302000B4000030B5000030B600340898
:10055800A2003508A3003608A4003308FA003208C0
:10056800F900312379082000A5007A08A6007B0845
:10057800A700062120002208B7002308B800240895
:10058800B9000030A0002030A100C230A200370816
:10059800A3003808A4003908A5001120200020086D
:1005A800BA002108BB002208BC003A08F1003B0849
:1005B800F2003C08F300B92172082000B30071086A
:1005C800B200080021001B08F3007308F6001C089D
:1005D800F3007308F7007708F300F4017308F800D4
:1005E8007408F9007908F4007808F3007308F40037
:1005F800F3017308F8007408F90076087807F80022
:1006080079080318790AF9007908F2007808F100E6
:1006180008006223512321009D149D18112BE62206
:1006280072082000C3007108C2004308B3004208E2
:10063800B200A42220003308C1003208C0001530DF
:10064800BF004B30BE00D130BD00BD0B292BBE0B07
:10065800292BBF0B292B00000F2BFC01FA1F3B2B6A
:10066800F909FA09F90A0319FA0AFC01FC0A7908D6
:10067800F1007A08F200F3018E302000A000200873
:10068800F4007C08A1002108F50040227108F90057
:100698007208FA007308FB00080022009716171664
:1006A80021001D141D08833974389D00C730F100DE
:0E06B8000000F10B5C2B00320000080008006F
:020000040001F9
:04000E00E4F9FFDF33
:00000001FF
